{
  "contractName": "KovanDaiFaucet",
  "abi": [
    {
      "anonymous": false,
      "inputs": [
        {
          "indexed": true,
          "internalType": "address",
          "name": "from",
          "type": "address"
        },
        {
          "indexed": false,
          "internalType": "uint256",
          "name": "amount",
          "type": "uint256"
        }
      ],
      "name": "Deposit",
      "type": "event"
    },
    {
      "anonymous": false,
      "inputs": [
        {
          "indexed": true,
          "internalType": "address",
          "name": "to",
          "type": "address"
        },
        {
          "indexed": false,
          "internalType": "uint256",
          "name": "amount",
          "type": "uint256"
        }
      ],
      "name": "Withdrawal",
      "type": "event"
    },
    {
      "payable": true,
      "stateMutability": "payable",
      "type": "fallback"
    },
    {
      "constant": false,
      "inputs": [],
      "name": "destroy",
      "outputs": [],
      "payable": false,
      "stateMutability": "nonpayable",
      "type": "function"
    },
    {
      "constant": false,
      "inputs": [
        {
          "internalType": "uint256",
          "name": "withdraw_amount",
          "type": "uint256"
        }
      ],
      "name": "withdraw",
      "outputs": [],
      "payable": false,
      "stateMutability": "nonpayable",
      "type": "function"
    }
  ],
  "bytecode": "0x608060405233600160006101000a81548173ffffffffffffffffffffffffffffffffffffffff021916908373ffffffffffffffffffffffffffffffffffffffff160217905550734f96fe3b7a6cf9725f59d353f723c1bdb64ca6aa6000806101000a81548173ffffffffffffffffffffffffffffffffffffffff021916908373ffffffffffffffffffffffffffffffffffffffff16021790555061067b806100a86000396000f3fe6080604052600436106100295760003560e01c80632e1a7d4d1461007957806383197ef0146100b4575b3373ffffffffffffffffffffffffffffffffffffffff167fe1fffcc4923d04b559f4d29a8bfc6cda04eb5b0d3c460751c2402c5c5cc9109c346040518082815260200191505060405180910390a2005b34801561008557600080fd5b506100b26004803603602081101561009c57600080fd5b81019080803590602001909291905050506100cb565b005b3480156100c057600080fd5b506100c9610346565b005b67016345785d8a00008111156100e057600080fd5b806000809054906101000a900473ffffffffffffffffffffffffffffffffffffffff1673ffffffffffffffffffffffffffffffffffffffff166370a08231306040518263ffffffff1660e01b8152600401808273ffffffffffffffffffffffffffffffffffffffff1673ffffffffffffffffffffffffffffffffffffffff16815260200191505060206040518083038186803b15801561017f57600080fd5b505afa158015610193573d6000803e3d6000fd5b505050506040513d60208110156101a957600080fd5b81019080805190602001909291905050501015610211576040517f08c379a00000000000000000000000000000000000000000000000000000000081526004018080602001828103825260358152602001806106126035913960400191505060405180910390fd5b6000809054906101000a900473ffffffffffffffffffffffffffffffffffffffff1673ffffffffffffffffffffffffffffffffffffffff1663a9059cbb33836040518363ffffffff1660e01b8152600401808373ffffffffffffffffffffffffffffffffffffffff1673ffffffffffffffffffffffffffffffffffffffff16815260200182815260200192505050602060405180830381600087803b1580156102b957600080fd5b505af11580156102cd573d6000803e3d6000fd5b505050506040513d60208110156102e357600080fd5b8101908080519060200190929190505050503373ffffffffffffffffffffffffffffffffffffffff167f7fcf532c15f0a6db0bd6d0e038bea71d30d808c7d98cb3bf7268a95bf5081b65826040518082815260200191505060405180910390a250565b600160009054906101000a900473ffffffffffffffffffffffffffffffffffffffff1673ffffffffffffffffffffffffffffffffffffffff163373ffffffffffffffffffffffffffffffffffffffff16146103ec576040517f08c379a000000000000000000000000000000000000000000000000000000000815260040180806020018281038252602e8152602001806105e4602e913960400191505060405180910390fd5b6000809054906101000a900473ffffffffffffffffffffffffffffffffffffffff1673ffffffffffffffffffffffffffffffffffffffff1663a9059cbb600160009054906101000a900473ffffffffffffffffffffffffffffffffffffffff166000809054906101000a900473ffffffffffffffffffffffffffffffffffffffff1673ffffffffffffffffffffffffffffffffffffffff166370a08231306040518263ffffffff1660e01b8152600401808273ffffffffffffffffffffffffffffffffffffffff1673ffffffffffffffffffffffffffffffffffffffff16815260200191505060206040518083038186803b1580156104ea57600080fd5b505afa1580156104fe573d6000803e3d6000fd5b505050506040513d602081101561051457600080fd5b81019080805190602001909291905050506040518363ffffffff1660e01b8152600401808373ffffffffffffffffffffffffffffffffffffffff1673ffffffffffffffffffffffffffffffffffffffff16815260200182815260200192505050602060405180830381600087803b15801561058e57600080fd5b505af11580156105a2573d6000803e3d6000fd5b505050506040513d60208110156105b857600080fd5b8101908080519060200190929190505050503373ffffffffffffffffffffffffffffffffffffffff16fffe4f6e6c792074686520636f6e7472616374206f776e65722063616e2063616c6c20746869732066756e6374696f6e496e73756666696369656e742062616c616e636520696e2066617563657420666f72207769746864726177616c2072657175657374a265627a7a72315820b44af39c25420f0c2ae1f90a11282604340f928d47f22a8080cbff3c586a89c564736f6c63430005100032",
  "source": "pragma solidity ^0.5.9;\r\n\r\ninterface DaiToken {\r\n    function transfer(address dst, uint wad) external returns (bool);\r\n    function balanceOf(address guy) external view returns (uint);\r\n}\r\n\r\ncontract owned {\r\n    DaiToken daitoken;\r\n    address owner;\r\n\r\n    constructor() public{\r\n        owner = msg.sender;\r\n        daitoken = DaiToken(0x4F96Fe3b7A6Cf9725f59d353F723c1bDb64CA6Aa);\r\n    }\r\n\r\n    modifier onlyOwner {\r\n        require(msg.sender == owner,\r\n        \"Only the contract owner can call this function\");\r\n        _;\r\n    }\r\n}\r\n\r\ncontract mortal is owned {\r\n    // Only owner can shutdown this contract.\r\n    function destroy() public onlyOwner {\r\n        daitoken.transfer(owner, daitoken.balanceOf(address(this)));\r\n        selfdestruct(msg.sender);\r\n    }\r\n}\r\n\r\ncontract KovanDaiFaucet is mortal {\r\n\r\n    event Withdrawal(address indexed to, uint amount);\r\n    event Deposit(address indexed from, uint amount);\r\n\r\n    // Give out Dai to anyone who asks\r\n    function withdraw(uint withdraw_amount) public {\r\n        // Limit withdrawal amount\r\n        require(withdraw_amount <= 0.1 ether);\r\n        require(daitoken.balanceOf(address(this)) >= withdraw_amount,\r\n            \"Insufficient balance in faucet for withdrawal request\");\r\n        // Send the amount to the address that requested it\r\n        daitoken.transfer(msg.sender, withdraw_amount);\r\n        emit Withdrawal(msg.sender, withdraw_amount);\r\n    }\r\n\r\n    // Accept any incoming amount\r\n    function () external payable {\r\n        emit Deposit(msg.sender, msg.value);\r\n    }\r\n}",
  "sourcePath": "D:/work/Ethereum/KovanDaiFaucet/contracts/KovanDaiFaucet.sol",
  "compiler": {
    "name": "solc",
    "version": "0.5.16+commit.9c3226ce.Emscripten.clang"
  },
  "schemaVersion": "3.3.3",
  "updatedAt": "2021-01-31T21:22:14.165Z",
  "networkType": "ethereum",
  "devdoc": {
    "methods": {}
  },
  "userdoc": {
    "methods": {}
  }
}